:100000000C9462000C948A000C948A000C948A0070
:100010000C948A000C948A000C948A000C948A0038
:100020000C948A000C948A000C948A000C948A0028
:100030000C948A000C948A000C948A000C948A0018
:100040000C9442030C948A000C948A000C948A004D
:100050000C948A000C948A000C948A000C948A00F8
:100060000C948A000C948A000000000023002600F3
:10007000290000000000240027002A0000000000E2
:10008000250028002B0004040404040404040202D4
:100090000202020203030303030301020408102007
:1000A0004080010204081020010204081020000012
:1000B0000008000201000003040700000000000027
:1000C0000000140511241FBECFEFD8E0DEBFCDBF66
:1000D00011E0A0E0B1E0EAE1FDE002C005900D9280
:1000E000A236B107D9F721E0A2E6B1E001C01D9226
:1000F000A338B207E1F710E0C2E6D0E004C02197D0
:10010000FE010E948506C136D107C9F70E94D103BE
:100110000C948B060C94000090E0FC01E255FF4F1C
:100120002491FC01E656FF4F3491FC01EA57FF4F42
:10013000E491EE23C9F0222339F0233001F1A8F431
:10014000213019F1223029F1F0E0EE0FFF1FE458C1
:10015000FF4FA591B4918FB7F894EC91611126C02F
:1001600030953E233C938FBF08952730A9F0283067
:10017000C9F0243049F7809180008F7D03C08091C1
:1001800080008F7780938000DFCF84B58F7784BD28
:10019000DBCF84B58F7DFBCF8091B0008F778093CC
:1001A000B000D2CF8091B0008F7DF9CF3E2BDACF57
:1001B000CF93DF9390E0FC01E656FF4F24918A57DE
:1001C0009F4FFC0184918823D1F090E0880F991F04
:1001D000FC01EE58FF4FA591B491FC01E458FF4F8C
:1001E000C591D49161110EC09FB7F8948C91E22F04
:1001F000E0958E238C932881E223E8839FBFDF91D3
:10020000CF9108958FB7F894EC91E22BEC938FBFC8
:10021000F6CF3FB7F8948091670190916801A09163
:100220006901B0916A0126B5A89B05C02F3F19F05E
:100230000196A11DB11D3FBFBA2FA92F982F882766
:10024000BC01CD01620F711D811D911D42E0660F41
:10025000771F881F991F4A95D1F708958F929F9213
:10026000AF92BF92CF92DF92EF92FF924B015C016F
:100270000E9409016B017C010E9409016C197D0932
:100280008E099F09683E734081059105A8F321E01E
:10029000821A9108A108B10888EEC80E83E0D81E22
:1002A000E11CF11C81149104A104B10429F7FF9011
:1002B000EF90DF90CF90BF90AF909F908F90089578
:1002C000AF92BF92CF92DF92EF92FF920F931F9364
:1002D000CF93DF936C017B018B01040F151FEB01A2
:1002E0005E01AE18BF08C017D10759F06991D60159
:1002F000ED91FC910190F081E02DC6010995892BCB
:1003000079F7C501DF91CF911F910F91FF90EF9089
:10031000DF90CF90BF90AF900895089590E080E077
:1003200008958F929F92AF92BF920F931F93CF9396
:10033000DF93CDB7DEB7A1970FB6F894DEBF0FBE3F
:10034000CDBF19A2423008F44AE08E010F5D1F4F65
:10035000842E912CB12CA12CA50194010E9463063E
:10036000E62FB901CA01EA3044F5E05DD801EE9309
:100370008D01232B242B252B79F790E080E010971B
:1003800069F0FD0101900020E9F73197AF014A1BA8
:100390005B0BBD018BE691E00E946001A1960FB658
:1003A000F894DEBF0FBECDBFDF91CF911F910F91AB
:1003B000BF90AF909F908F900895E95CD7CFFC01DC
:1003C00001900020E9F73197AF01481B590BBC01A0
:1003D0008BE691E00C946001CF93DF93EC0160E039
:1003E0008E810E948C0061E08E810E948C0060E012
:1003F0008E810E948C008BE891E00197F1F7DF91EC
:10040000CF910895CF92DF92EF92FF920F931F93B7
:10041000CF93DF936C017C0187E0E80EF11CD0E004
:10042000C0E0062F10E0B8010C2E02C0759567954C
:100430000A94E2F76170F70181917F010E948C00BC
:100440002196C430D10579F7C601DF91CF911F9174
:100450000F91FF90EF90DF90CF900C94EC01CF9232
:10046000DF92EF92FF920F931F93CF93DF93EC01F4
:10047000F62E642F8C810E948C008D818F3F19F0A5
:1004800060E00E948C000F2D10E08F8584FF25C056
:100490006E0187E0C80ED11CF12CE12CB8010E2CA6
:1004A00002C0759567950A94E2F76170F601819133
:1004B0006F010E948C00FFEFEF1AFF0A88E0E81638
:1004C000F10461F7CE01DF91CF911F910F91FF9061
:1004D000EF90DF90CF900C94EC01B80184E075951B
:1004E00067958A95E1F7CE010E9402026F2DCE0139
:1004F000DF91CF911F910F91FF90EF90DF90CF9000
:100500000C94020240E0682F8BE691E00C942F02DD
:10051000CF93DF93823029F490917A019860909381
:100520007A0180937E0110927F0180E480938001A4
:1005300080E18093810180E58093820161E0809178
:100540006F010E94D800809170018F3F19F061E027
:100550000E94D80061E0809171010E94D800CBE632
:10056000D1E09E012B56314080917A0184FD0BC071
:1005700084E090E021962817390744F461E08E81E9
:100580000E94D800EECF88E090E0F4CF8BE39DE0AE
:100590000197F1F760E080916F010E948C0060E0AC
:1005A000809171010E948C00809170018F3F19F041
:1005B00060E00E948C0080917A0184FD39C063E084
:1005C0008BE691E00E940202CBE4D6E4CE010197D3
:1005D000F1F763E08BE691E00E9402022197F1F7C8
:1005E00063E08BE691E00E94020283E592E00197CE
:1005F000F1F762E08BE691E00E94020280917A01BD
:1006000080620E94820284E080937B018CE00E94E1
:10061000820281E00E9482028BE39FE10197F1F761
:1006200082E080937C0186E0DF91CF910C9482027E
:1006300080620E9482028BE496E40197F1F7809138
:100640007A0180620E94820283E592E00197F1F7CD
:1006500080917A0180620E948202D0CF90917E01C7
:10066000891710F08FEF890FE82FF0E0E559FE4F62
:10067000848980680C94820241E00E942F0281E00C
:1006800090E008951F920F920FB60F9211242F93AE
:100690003F938F939F93AF93BF938091630190910A
:1006A0006401A0916501B09166013091620123E07F
:1006B000230F2D3758F50196A11DB11D209362011E
:1006C0008093630190936401A0936501B0936601E8
:1006D0008091670190916801A0916901B0916A01D0
:1006E0000196A11DB11D8093670190936801A093AD
:1006F0006901B0936A01BF91AF919F918F913F9132
:100700002F910F900FBE0F901F90189526E8230F82
:100710000296A11DB11DD2CFCF92DF92EF92FF9230
:100720000F931F93E82FF92F05C0015011092109DC
:10073000310961F1908196239417B9F305C00150F6
:1007400011092109310911F1908196239413F7CFF2
:10075000C12CD12CE12CF12C0AC08FEFC81AD80A79
:10076000E80AF80A0C151D052E053F0579F0808171
:100770008623841791F36C2D7D2D8E2D9F2D1F9137
:100780000F91FF90EF90DF90CF90089560E070E0C0
:1007900080E090E01F910F91FF90EF90DF90CF905D
:1007A0000895789484B5826084BD84B5816084BDE9
:1007B00085B5826085BD85B5816085BD80916E00FF
:1007C000816080936E001092810080918100826030
:1007D000809381008091810081608093810080916D
:1007E00080008160809380008091B100846080935C
:1007F000B1008091B00081608093B00080917A0058
:10080000846080937A0080917A00826080937A007D
:1008100080917A00816080937A0080917A0080686C
:1008200080937A001092C10082E00E94880261E009
:1008300087E00E94D80060E088E00E94D80061E074
:1008400086E00E94D80061E085E00E94D80061E067
:1008500084E00E94D80061E083E00E94D80080E03C
:100860000E942E038CE091E00E94DF0160ED77E0B2
:1008700080E090E00E942E0181E00E9482028BE3E2
:100880009FE10197F1F7C3E0D0E093E2E92EF12C6C
:1008900022EAC22E20E0D22E3EE8A32E30E0B32E74
:1008A00040E0842E40E0942E60E087E00E948C00BF
:1008B000CE010197F1F761E087E00E948C00C7014B
:1008C0000197F1F760E087E00E948C00F6016491E7
:1008D000F5018491E82FF0E0EE0FFF1FE859FF4F7C
:1008E0008591949100E412E42FE030E0462F0E94BD
:1008F0008C03611571058105910529F06F5F7F4FAC
:100900008F4F9F4F9F700E946A0526E933E44BE0AA
:100910005DE30E94CE0520E030E040E05FE30E940E
:10092000CE050E9432052B013C0180E00E942E037F
:100930008BE191E00E94DF014AE0C301B20177FE42
:100940000EC041E06DE28BE691E00E942F02662727
:100950007727CB0164197509860997094AE00E9437
:10096000910186E291E00E94DF01FAE04F16510406
:100970006104710424F561E086E00E948C0060E06F
:1009800085E00E948C0060E084E00E948C0061E0C1
:1009900083E00E948C0081E00E942E038CE291E0B3
:1009A0000E94DF016CE271E080E090E00E942E0185
:1009B0008114910409F478CF0E94000075CF8AE079
:1009C000481A51086108710860E086E0E5E14E16BA
:1009D000510461047104A0F40E948C0061E085E080
:1009E0000E948C0060E084E00E948C0060E083E064
:1009F0000E948C0081E00E942E038DE391E0D0CF15
:100A00000E948C0060E085E00E948C0061E084E040
:100A10000E948C0060E083E00E948C0081E00E94D4
:100A20002E0380E591E0BCCFEBE6F1E01382128269
:100A300084E091E0918380838EE084838FEF8583CF
:100A40008FE0868380E1878381E1808782E18187EF
:100A500083E182871386148615861686178681E0C1
:100A60000C9488020E9439056894B1110C94C80551
:100A700008950E94AD0588F09F5798F0B92F9927E7
:100A8000B751B0F0E1F0660F771F881F991F1AF079
:100A9000BA95C9F714C0B13091F00E94C705B1E012
:100AA00008950C94C705672F782F8827B85F39F011
:100AB000B93FCCF3869577956795B395D9F73EF412
:100AC00090958095709561957F4F8F4F9F4F0895BA
:100AD000E89409C097FB3EF49095809570956195D8
:100AE0007F4F8F4F9F4F9923A9F0F92F96E9BB278E
:100AF0009395F695879577956795B795F111F8CF0A
:100B0000FAF4BB0F11F460FF1BC06F5F7F4F8F4F74
:100B10009F4F16C0882311F096E911C0772321F06A
:100B20009EE8872F762F05C0662371F096E8862F02
:100B300070E060E02AF09A95660F771F881FDAF759
:100B4000880F9695879597F9089557FD9058440F0B
:100B5000551F59F05F3F71F04795880F97FB991F1C
:100B600061F09F3F79F087950895121613061406D9
:100B7000551FF2CF4695F1DF08C016161706180666
:100B8000991FF1CF86957105610508940895E89441
:100B9000BB2766277727CB0197F908950E94E105C7
:100BA0000C9452060E94440638F00E944B0620F036
:100BB000952311F00C943B060C94410611240C94DF
:100BC000C8050E94A50570F3959FC1F3950F50E0ED
:100BD000551F629FF001729FBB27F00DB11D639FEF
:100BE000AA27F00DB11DAA1F649F6627B00DA11D95
:100BF000661F829F2227B00DA11D621F739FB00D3B
:100C0000A11D621F839FA00D611D221F749F3327AA
:100C1000A00D611D231F849F600D211D822F762F43
:100C20006A2F11249F5750409AF0F1F088234AF020
:100C3000EE0FFF1FBB1F661F771F881F915050408C
:100C4000A9F79E3F510580F00C943B060C94C80513
:100C50005F3FE4F3983ED4F3869577956795B79513
:100C6000F795E7959F5FC1F7FE2B880F911D96952D
:100C7000879597F9089597F99F6780E870E060E09D
:100C800008959FEF80EC089500240A941616170625
:100C900018060906089500240A941216130614066D
:100CA00005060895092E0394000C11F4882352F0D0
:100CB000BB0F40F4BF2B11F460FF04C06F5F7F4F88
:100CC0008F4F9F4F0895A1E21A2EAA1BBB1BFD0157
:100CD0000DC0AA1FBB1FEE1FFF1FA217B307E4071B
:100CE000F50720F0A21BB30BE40BF50B661F771F73
:100CF000881F991F1A9469F7609570958095909553
:100D00009B01AC01BD01CF010895EE0FFF1F0590BF
:0A0D1000F491E02D0994F894FFCF50
:100D1A00000000003C0360018E018D014761726191
:100D2A006765205061726B696E670044697374610C
:100D3A006E63653A2000636D2020200053544F50A3
:100D4A002120546F6F20436C6F73652000536C6FC2
:100D5A00772E2E2E204265204361726566756C00DF
:100D6A005361666520746F205061726B20202020C9
:020D7A00200057
:00000001FF
